:100000000C94B1110C94DB290C94B4290C94D911E3
:100010000C9444190C943A190C94D9110C94D911DC
:100020000C94D9110C94D9110C94D9110C94D911A8
:100030000C94D9110C94D9110C94D9110C94D91198
:100040000C946E290C94D9110C94D9110C94D911DB
:100050000C94D9110C94D9110C94D9110C94D91178
:100060000C94022A0C94D9110C94D9110C94C31934
:100070000C94D9110C94D9110C94D9110C94D91158
:100080000C94D9110C94D9110C94D9110C94D91148
:100090000C94D9110C94D9110C94D9110C94D91138
:1000A0000C94D9110C94D9110C94D9110C94D91128
:1000B0000C94D9119115A915F315541662169916B9
:1000C000E7165A186C185C185F18631866186918D8
:1000D000F024F524FA2404254B254B250E2516255E
:1000E0001E2528254B2532254125EF28F228E52815
:1000F000E92813291329F628FA28002904291329A5
:100100000A290E29084AD73B3BCE016E84BCBFFDAD
:10011000C12F3D6C74319ABD56833DDA3D00C77FD7
:1001200011BED9E4BB4C3E916BAAAABE0000008070
:100130003F00150180961180FAB103012C2DB20306
:10014000012C2DB306012C2D012C2DB40107C00369
:10015000A20284C101C5C2020A00C3028A2AC402E3
:100160008AEEC5010E20003601C83A01052A0400B6
:1001700000007F2B040000007FE010021C071237F4
:1001800032292D29252B3900010310E110031D0709
:10019000062E2C292D2E2E373F0000021013800A28
:1001A0002980640B0B04088882070191BAC7C070CC
:1001B0002088881000303007FFFFFFFFF00FFFFF9F
:1001C000FFFFF81FFFFFFFFFFC3FFFFFFFFFFE3FAA
:1001D000FFFFFFFFFE7FFFFFFFFFFF7F0000000329
:1001E000FF7F00000007FF7F0000000FFF7F00007F
:1001F000001FFF7F0000003FFF7F000000FFFF7F28
:10020000000001FFFF7F000003FFFF7F000007FFEA
:100210007F7F00000FFE7F7F00001FFC7F7F0000BC
:100220007FF07F7F0000FFE07F7F0001FFC07F7FC6
:100230000003FF807F7F0007FF007F7F000FFE002D
:100240007F7F003FFC007F7F007FF0007F7F00FF0B
:10025000E0007F7F01FFC0007F7F03FF80007F7F82
:1002600007FF00007F7F1FFE00007F7F3FF8000038
:100270007F7F7FF000007F7FFFE000007F7FFFC077
:1002800000007F7FFF8000007F7FFF0000007F7FF6
:10029000FC0000007F7FF80000007F7FF00000007E
:1002A0007F7FE00000007F7FFFFFFFFFFF3FFFFF3A
:1002B000FFFFFE3FFFFFFFFFFE1FFFFFFFFFFC0FE3
:1002C000FFFFFFFFF807FFFFFFFFF001FFFFFFFF4A
:1002D000C000000000000030300000007FC00000BF
:1002E0000000FFC000000000FFC000000001FFC0D0
:1002F00000000003FFC000000007FFC00000000F67
:10030000FFC00000001FFFC00000001FFFC0000072
:10031000003FFFC00000007FDFC0000000FF9FC063
:10032000000001FF9FC0000003FF1FC0000003FE8C
:100330001FC0000007FC1FC0000000001FC000001D
:1003400000001FC0000000001FC0000000001FC010
:10035000000000001FC0000000001FC000000000DF
:100360001FC0000000001FC0000000001FC00000F0
:1003700000001FC0000000001FC0000000001FC0E0
:10038000000000001FC0000000001FC000000000AF
:100390001FC0000000001FC0000000001FC00000C0
:1003A00000001FC0000000001FC0000000001FC0B0
:1003B000000000001FC0000000001FC0000000007F
:1003C0001FC0000000001FC0000000001FC0000090
:1003D00000001FC0000000001FC0000000001FC080
:1003E000000000001FC0000000001FC0000000004F
:1003F0001FC0000000001FC000303001FFFFFFFFE2
:10040000C007FFFFFFFFF01FFFFFFFFFF81FFFFF09
:10041000FFFFFC3FFFFFFFFFFE3FFFFFFFFFFE7FF1
:10042000FFFFFFFFFF7F000000007F7F0000000054
:100430007F7F000000007F7F000000007F00000041
:1004400000007F00000000007F00000000007F002F
:10045000000000007F00000000007F00000000009E
:100460007F00000000007F00000000007F0000000F
:1004700000007F00000000007F01FFFFFFFFFF077B
:10048000FFFFFFFFFE0FFFFFFFFFFE1FFFFFFFFF4E
:10049000FC3FFFFFFFFFF83FFFFFFFFFF07FFFFF85
:1004A000FFFFC07F00000000007F00000000007F11
:1004B00000000000007F00000000007F000000003E
:1004C000007F00000000007F00000000007F0000AF
:1004D0000000007F00000000007F00000000007F9F
:1004E00000000000007F00000000007F000000000E
:1004F000007FFFFFFFFFFF7FFFFFFFFFFF7FFFFF8B
:10050000FFFFFF7FFFFFFFFFFF7FFFFFFFFFFF7F7B
:10051000FFFFFFFFFF7FFFFFFFFFFF303001FFFF07
:10052000FFFF0007FFFFFFFFC01FFFFFFFFFE01FF0
:10053000FFFFFFFFF03FFFFFFFFFF83FFFFFFFFF61
:10054000F87FFFFFFFFFFC7F00000001FC7F000041
:100550000001FC7F00000001FC7F00000001FC00A6
:1005600000000001FC0000000001FC000000000190
:10057000FC0000000001FC0000000001FC00000085
:100580000001FC0000000001FC0000000001FC0074
:1005900000000001FC007FFFFFFFFC007FFFFFFF6A
:1005A000F8007FFFFFFFF8007FFFFFFFFC007FFFE9
:1005B000FFFFFE007FFFFFFFFE007FFFFFFFFF004A
:1005C000000000007F00000000007F00000000002D
:1005D0007F00000000007F00000000007F0000009E
:1005E00000007F00000000007F00000000007F008E
:1005F000000000007F00000000007F7F000000007E
:100600007F7F000000007F7F000000007F7F800070
:1006100000007F7FFFFFFFFFFF3FFFFFFFFFFE3F69
:10062000FFFFFFFFFE1FFFFFFFFFFC0FFFFFFFFFAE
:10063000F807FFFFFFFFF001FFFFFFFFC0303000B2
:100640000000007F8000000000FF8000000001FF2C
:100650008000000003FF8000000007FF8000000012
:100660000FFF800000001FFF800000003FFF8000A0
:1006700000007FFF80000000FFFF80000001FFFFFF
:1006800080000007FFFF8000000FFFBF8000001FF9
:10069000FE3F8000003FFC3F8000007FF83F80006D
:1006A00000FFF03F800001FFE03F800003FF803F3C
:1006B000800007FF003F80000FFE003F80001FFC0E
:1006C000003F80007FF8003F8000FFF0003F800186
:1006D000FFC0003F8003FF80003F8007FF00003F16
:1006E000800FFE00003F801FFC00003F801FFFFFC7
:1006F000FFFFFF1FFFFFFFFFFF1FFFFFFFFFFF1FAA
:10070000FFFFFFFFFF1FFFFFFFFFFF1FFFFFFFFFB9
:10071000FF1FFFFFFFFFFF000000003F8000000001
:10072000003F80000000003F80000000003F80008C
:100730000000003F80000000003F80000000003FFC
:1007400080000000003F80000000003F80000000AB
:10075000003F80000000003F80000000003F80302C
:10076000307FFFFFFFFFFF7FFFFFFFFFFF7FFFFFE8
:10077000FFFFFF7FFFFFFFFFFF7FFFFFFFFFFF7F09
:10078000FFFFFFFFFF7FFFFFFFFFFF7F0000000075
:10079000007F00000000007F00000000007F0000DC
:1007A0000000007F00000000007F00000000007FCC
:1007B00000000000007F00000000007F000000003B
:1007C000007F00000000007F00000000007F0000AC
:1007D0000000007F00000000007FFFFFFFFFC07FE0
:1007E000FFFFFFFFF07FFFFFFFFFF87FFFFFFFFF2F
:1007F000FC7FFFFFFFFFFE7FFFFFFFFFFE7FFFFF8E
:10080000FFFFFF00000000007F00000000007F00ED
:10081000000000007F00000000007F0000000000DA
:100820007F00000000007F00000000007F0000004B
:1008300000007F00000000007F00000000007F7FBC
:10084000000000007F7F000000007F7F00000000AC
:100850007F7F000000007F7FFFFFFFFFFF3FFFFF64
:10086000FFFFFE3FFFFFFFFFFE1FFFFFFFFFFC1F1D
:10087000FFFFFFFFF807FFFFFFFFF001FFFFFFFF94
:10088000C0303001FFFFFFFF0007FFFFFFFF000F39
:10089000FFFFFFFF001FFFFFFFFF003FFFFFFFFF06
:1008A000003FFFFFFFFF007FFFFFFFFF007F000013
:1008B0000000007F00000000007F00000000007FBB
:1008C00000000000007F00000000007F000000002A
:1008D000007F00000000007F00000000007F00009B
:1008E0000000007F00000000007F00000000007F8B
:1008F00000000000007F00000000007FFFFFFFFFFE
:10090000C07FFFFFFFFFF07FFFFFFFFFF87FFFFFCC
:10091000FFFFFC7FFFFFFFFFFE7FFFFFFFFFFE7F6C
:10092000FFFFFFFFFF7F000000007F7F000000004F
:100930007F7F000000007F7F000000007F7F0000BD
:1009400000007F7F000000007F7F000000007F7FAD
:10095000000000007F7F000000007F7F000000009B
:100960007F7F000000007F7F000000007F7F00008D
:1009700000007F7F000000007F7FFFFFFFFFFF3F41
:10098000FFFFFFFFFE3FFFFFFFFFFE1FFFFFFFFF19
:10099000FC0FFFFFFFFFF807FFFFFFFFF001FFFF66
:1009A000FFFFC03030007FFFFFFFC0007FFFFFFF71
:1009B000F0007FFFFFFFF8007FFFFFFFFC007FFFDD
:1009C000FFFFFE007FFFFFFFFE007FFFFFFFFF0036
:1009D000000000007F00000000007F000000000019
:1009E0007F00000000007F00000000007F0000008A
:1009F00000007F00000000007F00000000007F007A
:100A0000000000007F00000000007F0000000000E8
:100A10007F00000000007F00000000007F00000059
:100A200000007F00000000007F00000000007F0049
:100A3000000000007F00000000007F0000000000B8
:100A40007F00000000007F00000000007F00000029
:100A500000007F00000000007F00000000007F0019
:100A6000000000007F00000000007F000000000088
:100A70007F00000000007F00000000007F000000F9
:100A800000007F00000000007F00000000007F00E9
:100A9000000000007F00000000007F000000000058
:100AA0007F00000000007F00000000007F000000C9
:100AB00000007F00000000007F00000000007F00B9
:100AC000000000007F303001FFFFFFFFC007FFFF85
:100AD000FFFFF00FFFFFFFFFF81FFFFFFFFFFC3FCF
:100AE000FFFFFFFFFE3FFFFFFFFFFE7FFFFFFFFF58
:100AF000FF7F000000007F7F000000007F7F00007C
:100B000000007F7F000000007F7F000000007F7FEB
:100B1000000000007F7F000000007F7F00000000D9
:100B20007F7F000000007F7F000000007F7F0000CB
:100B300000007F7F000000007F7F000000007F7FBB
:100B4000000000007F3FFFFFFFFFFE3FFFFFFFFFB2
:100B5000FE3FFFFFFFFFFE3FFFFFFFFFFE3FFFFFE8
:100B6000FFFFFE7FFFFFFFFFFF7F000000007F7F92
:100B7000000000007F7F000000007F7F0000000079
:100B80007F7F000000007F7F000000007F7F00006B
:100B900000007F7F000000007F7F000000007F7F5B
:100BA000000000007F7F000000007F7F0000000049
:100BB0007F7F000000007F7F000000007F7FFFFF3D
:100BC000FFFFFF3FFFFFFFFFFE3FFFFFFFFFFE1F97
:100BD000FFFFFFFFFC0FFFFFFFFFF807FFFFFFFF17
:100BE000F001FFFFFFFFC0303003FFFFFFFFC00F2A
:100BF000FFFFFFFFF01FFFFFFFFFF83FFFFFFFFFBB
:100C0000FC7FFFFFFFFFFE7FFFFFFFFFFEFFFFFFF9
:100C1000FFFFFFFE000000007FFE000000007FFEDF
:100C2000000000007FFE000000007FFE00000000CA
:100C30007FFE000000007FFE000000007FFE00003D
:100C400000007FFE000000007FFE000000007FFE2D
:100C5000000000007FFE000000007FFE000000009A
:100C60007FFE000000007FFFFFFFFFFFFF7FFFFF11
:100C7000FFFFFF7FFFFFFFFFFF3FFFFFFFFFFF1FA4
:100C8000FFFFFFFFFF0FFFFFFFFFFF03FFFFFFFF60
:100C9000FF00000000007F00000000007F00000057
:100CA00000007F00000000007F00000000007F00C7
:100CB000000000007F00000000007F000000000036
:100CC0007F00000000007F00000000007F000000A7
:100CD00000007F00000000007F00000000007FFF98
:100CE000FFFFFFFFFFFFFFFFFFFFFE7FFFFFFFFF95
:100CF000FE3FFFFFFFFFFC3FFFFFFFFFF80FFFFF7F
:100D0000FFFFF003FFFFFFFFC030300000000000D6
:100D100000000000000000000000000000000000D3
:100D200000000000000000000000000000000000C3
:100D300000000000000000000000000000000000B3
:100D400000000000000000000000000000000000A3
:100D50000000000000000000000000000000000093
:100D60000000000000000000000000000000000083
:100D70000000000000000000000000000000000073
:100D8000000000000000000000001FFFFFF800004E
:100D90001FFFFFF800001FFFFFF800001FFFFFF814
:100DA00000001FFFFFF800001FFFFFF800001FFFFB
:100DB000FFF800000000000000000000000000003C
:100DC0000000000000000000000000000000000023
:100DD0000000000000000000000000000000000013
:100DE0000000000000000000000000000000000003
:100DF00000000000000000000000000000000000F3
:100E000000000000000000000000000000000000E2
:100E100000000000000000000000000000000000D2
:100E2000000000000000000000000026260FFFFF69
:100E3000FFC07FFFFFFF83FFFFFFFF1FFFFFFFFEDE
:100E4000FFFFFFFFFFFFFFFFFFFFC000003FFF00AE
:100E50000001FFFC00000FFFF000007FFFC0000753
:100E6000FFFF00003FFFFC0001FEFFF0000FF3FF5B
:100E7000C000FF8FFF0007F83FFC003FC0FFF001FC
:100E8000FE03FFC00FF00FFF00FF803FFC07F800DC
:100E9000FFF03FC003FFC1FE000FFF0FF0003FFC5B
:100EA000FF8000FFF7F80003FFFFC0000FFFFE0008
:100EB000003FFFF00000FFFF800003FFF800000F7D
:100EC000FFC000003FFFFFFFFFFFFFFFFFFFF7FF37
:100ED000FFFFFF8FFFFFFFFC1FFFFFFFE03FFFFF54
:100EE000FF002626000000000000000FC0000000E8
:100EF0007F00000003FC0000001FF0000000FFC0A6
:100F0000000007FF0000003FFC000001FFF00000B0
:100F10000FEFC000007F3F000003F8FC00001FC37C
:100F2000F00000FE0FC00000003F00000000FC00C9
:100F3000000003F00000000FC00000003F000000B0
:100F400000FC00000003F00000000FC00000003FA4
:100F500000000000FC00000003F00000000FC000D3
:100F600000003F00000000FC00000003F000000053
:100F70000FC00000003F00000000FC00000003F074
:100F80000000000FC00000003F00000000FC000057
:100F90000003F00000000FC00026260FFFFFFFC077
:100FA0007FFFFFFF83FFFFFFFF1FFFFFFFFEFFFF2E
:100FB000FFFFFFFFFFFFFFFFC000000FFF0000006B
:100FC0003FFC000000FC00000003F00000000FC028
:100FD0000000003F00000000FC00000003F00000E3
:100FE000000FC00000003F0FFFFFFFFC7FFFFFFF6F
:100FF000F3FFFFFFFF9FFFFFFFFEFFFFFFFFF3FF7A
:10100000FFFFFF0FC00000003F00000000FC0000D9
:101010000003F00000000FC00000003F00000000CF
:10102000FC00000003F00000000FC00000003F00C3
:10103000000000FFFFFFFFFFFFFFFFFFFFFFFFFFBD
:10104000FFFFFFFFFFFFFFFFFFFFFFFFFFFFFFF0BF
:1010500026260FFFFFFF807FFFFFFF03FFFFFFFE3E
:101060001FFFFFFFFCFFFFFFFFFBFFFFFFFFEFC0C6
:1010700000001FBF0000007EFC000001F80000001F
:1010800007E00000001F800000007E00000001F863
:1010900000000007E00000001F800000007E01FF4C
:1010A000FFFFF807FFFFFFC01FFFFFFF807FFFFF6D
:1010B000FF01FFFFFFFC07FFFFFFF000000007C07C
:1010C0000000001F000000007C00000001F0000094
:1010D0000007C00000001F000000007C00000001AD
:1010E000FFC0000007FF0000001FFFFFFFFFFFFF22
:1010F000FFFFFFF7FFFFFFFFDFFFFFFFFE3FFFFFE9
:10110000FFF03FFFFFFF8026260000007F00000069
:1011100003FC0000001FF0000000FFC0000007FFFC
:101120000000003FFC000001FFF000000FFFC000C6
:1011300000FFFF000007FEFC00003FF3F00001FF8E
:101140008FC0000FF83F00007FC0FC0003FE03F0DB
:10115000001FF00FC001FF003F000FF800FC007FF0
:10116000C003F003FC000FC01FE0003F00FF0000C1
:10117000FC07FFFFFFFFDFFFFFFFFF7FFFFFFFFD1C
:10118000FFFFFFFFF7FFFFFFFFDFFFFFFFFF000095
:10119000003F00000000FC00000003F00000000F12
:1011A000C00000003F00000000FC00000003F00051
:1011B00000000FC00000003F00000000FC002626D9
:1011C000FFFFFFFFFFFFFFFFFFFFFFFFFFFFFFFF2F
:1011D000FFFFFFFFFFFFFFFFFFFFFFFFFFC000005C
:1011E000003F00000000FC00000003F00000000FC2
:1011F000C00000003F00000000FC00000003F00001
:1012000000000FC00000003FFFFFFFF0FFFFFFFFE7
:10121000E3FFFFFFFFCFFFFFFFFFBFFFFFFFFFFF6A
:10122000FFFFFFFC00000003F00000000FC0000003
:10123000003F00000000FC00000003F00000000F71
:10124000C00000003F00000000FFF0000003FFC0EE
:1012500000000FFF0000003FFFFFFFFFFFFFFFFF49
:10126000FFF7FFFFFFFF8FFFFFFFFC1FFFFFFFE008
:101270003FFFFFFF0026260FFFFFFF007FFFFFFC61
:1012800003FFFFFFF01FFFFFFFC0FFFFFFFF03FF94
:10129000FFFFFC0FC00000003F00000000FC00004A
:1012A0000003F00000000FC00000003F000000003D
:1012B000FC00000003F00000000FC00000003FFF32
:1012C000FFFFF0FFFFFFFFE3FFFFFFFFCFFFFFFF89
:1012D000FFBFFFFFFFFFFFFFFFFFFFF0000003FF67
:1012E000C000000FFF0000003FFC000000FFF00006
:1012F0000003FFC000000FFF0000003FFC000000E3
:10130000FFF0000003FFC000000FFF0000003FFFE0
:10131000FFFFFFFFFFFFFFFFF7FFFFFFFF8FFFFF55
:10132000FFFC1FFFFFFFE03FFFFFFF00262603FF3C
:10133000FFFF800FFFFFFF803FFFFFFF00FFFFFF6A
:10134000FE03FFFFFFFC0FFFFFFFF00000000FC0D8
:101350000000003F00000000FC00000003F000005F
:10136000000FC00000003F00000000FC0000000370
:10137000F00000000FC00000003F00000000FC0073
:10138000000003F00000000FC00000003F0000005C
:1013900000FC00000003F00000000FC00000003F50
:1013A00000000000FC00000003F00000000FC0007F
:1013B00000003F00000000FC00000003F0000000FF
:1013C0000FC00000003F00000000FC00000003F020
:1013D0000000000FC00000003F00000000FC000003
:1013E0000003F026260FFFFFFFC07FFFFFFF83FFF4
:1013F000FFFFFF1FFFFFFFFEFFFFFFFFFFFFFFFFDE
:10140000FFFFC000000FFF0000003FFC000000FFD6
:10141000F0000003FFC000000FFF0000003FFC00D1
:101420000000FFF0000003FFC000000FFF000000FD
:101430003FFFFFFFFFFDFFFFFFFFE7FFFFFFFF9FF6
:10144000FFFFFFFEFFFFFFFFFFF0000003FFC000F4
:10145000000FFF0000003FFC000000FFF000000351
:10146000FFC000000FFF0000003FFC000000FFF085
:10147000000003FFC000000FFF0000003FFFFFFF60
:10148000FFFFFFFFFFFFF7FFFFFFFF8FFFFFFFFCE7
:101490001FFFFFFFE03FFFFFFF0026260FFFFFFFBC
:1014A000C07FFFFFFF83FFFFFFFF1FFFFFFFFEFF68
:1014B000FFFFFFFFFFFFFFFFFFC000000FFF000067
:1014C000003FFC000000FFF0000003FFC000000F21
:1014D000FF0000003FFC000000FFF0000003FFC021
:1014E00000000FFF0000003FFFFFFFFFFFFFFFFFB7
:1014F000FFF7FFFFFFFFDFFFFFFFFF3FFFFFFFFCE7
:101500003FFFFFFFF00000000FC00000003F0000A1
:101510000000FC00000003F00000000FC00000000D
:101520003F00000000FC00000003F00000000FC0BE
:101530000000003FFFFFFFFFFFFFFFFFFFF7FFFF80
:10154000FFFF8FFFFFFFFC1FFFFFFFE03FFFFFFFDD
:10155000002626000000000000000000000000003F
:10156000000000000000000000000000000000007B
:10157000000000000000000000000000000000006B
:10158000000000000000000000000000000000005B
:10159000000000000000000000000000000000004B
:1015A000FFFFFC0003FFFFF0000FFFFFC0003FFF45
:1015B000FF0000FFFFFC0003FFFFF0000000000041
:1015C000000000000000000000000000000000001B
:1015D000000000000000000000000000000000000B
:1015E00000000000000000000000000000000000FB
:1015F00000000000000000000000000000000000EB
:1016000000000000000000001D1D1FFFFFC1FFFFC4
:10161000FF1FFFFFFDFFFFFFFF00003FF80003FF7C
:10162000C0003FFE0003FFF0007FFF8007FBFC00CF
:101630007F9FE007F8FF007F87F807F03FC07F013A
:10164000FE0FF00FF0FF007F8FF003FCFF001FEF95
:10165000E000FFFE0007FFE0003FFE0001FFE000AA
:101660000FFC00007FFFFFFFDFFFFFFC7FFFFFC1DC
:10167000FFFFFC001D1D0003E000003F000003F819
:1016800000003FC00003FE00001FF00001F78000D3
:101690001FBC0001F9E0001F8F000000780000036C
:1016A000C000001E000000F00000078000003C00A9
:1016B0000001E000000F00000078000003C00000FF
:1016C0001E000000F00000078000003C000001E068
:1016D00000000F00000078000003C000001E0000A2
:1016E0001D1D1FFFFFC1FFFFFF1FFFFFFDFFFFFFCE
:1016F000FF000007F800003FC00001E000000F00FD
:10170000000078000003C000001E000000F0000090
:10171000078FFFFFFCFFFFFFCFFFFFFCFFFFFFC7AF
:101720008000003C000001E000000F000000780095
:101730000003C000001E000000F0000007FFFFFFD4
:10174000FFFFFFFFFFFFFFFFFFFFFF801D1D1FFFCC
:10175000FF81FFFFFE1FFFFFF9FFFFFFEF00000FFC
:101760007800007BC00003C000001E000000F000F5
:1017700000078000003C000001E03FFFFF01FFFF89
:10178000F80FFFFFC07FFFFF00000078000003C0DC
:1017900000001E000000F00000078000003C000078
:1017A00001FE00000FF000007FFFFFFFDFFFFFFCE6
:1017B000FFFFFFC1FFFFFC001D1D00001F00000117
:1017C000F800001FC00001FE00001FF00001FF80B4
:1017D000001FFC0001FDE0001FCF0001FC78001F8E
:1017E000C3C001FC1E003FC0F003F807803F803CEF
:1017F00003F801E03F800F03F800781FFFFFFCFFB4
:10180000FFFFE7FFFFFF3FFFFFF800003C00000184
:10181000E000000F00000078000003C000001E0080
:101820000000F0001D1DFFFFFFFFFFFFFFFFFFFF98
:10183000FFFFFFFFFF00000078000003C000001E54
:10184000000000F00000078000003C000001E00004
:10185000000FFFFFFC7FFFFFF3FFFFFFDFFFFFFF36
:1018600000000078000003C000001E000000F0002F
:1018700000078000003FC00001FE00000FF00000E4
:101880007FFFFFFFDFFFFFFC7FFFFFC1FFFFFC00CB
:101890001D1D1FFFFF03FFFFF81FFFFFC1FFFFFE1E
:1018A0000F00000078000003C000001E000000F0E0
:1018B0000000078000003C000001E000000FFFFF77
:1018C000FC7FFFFFF3FFFFFFDFFFFFFFF000007F64
:1018D000800003FC00001FE00000FF000007F8008C
:1018E000003FC00001FE00000FF000007FFFFFFF7F
:1018F000DFFFFFFC7FFFFFC1FFFFFC001D1D1FFF7F
:10190000FF00FFFFFE07FFFFF03FFFFFC000001ECC
:10191000000000F00000078000003C000001E00033
:10192000000F00000078000003C000001E0000004F
:10193000F00000078000003C000001E000000F0004
:10194000000078000003C000001E000000F000004E
:10195000078000003C000001E000000F000000785C
:10196000000003C000001E001D1D1FFFFFC1FFFF80
:10197000FF1FFFFFFDFFFFFFFF000007F800003F14
:10198000C00001FE00000FF000007F800003FC009B
:10199000001FE00000FFFFFFFFBFFFFFF9FFFFFF99
:1019A000DFFFFFFFF000007F800003FC00001FE06E
:1019B0000000FF000007F800003FC00001FE00002B
:1019C0000FF000007FFFFFFFDFFFFFFC7FFFFFC185
:1019D000FFFFFC001D1D1FFFFFC1FFFFFF1FFFFFDB
:1019E000FDFFFFFFFF000007F800003FC00001FE01
:1019F00000000FF000007F800003FC00001FE000EB
:101A000000FF000007FFFFFFFDFFFFFFE7FFFFFFF5
:101A10001FFFFFF8000003C000001E000000F000E0
:101A200000078000003C000001E000000F00000003
:101A30007FFFFFFFDFFFFFFCFFFFFFC1FFFFFC0099
:101A40001D1D00000000000000000000000000005C
:101A50000000000000000000000000000000000086
:101A600000000000000000000000000000003FFF38
:101A7000C001FFFE000FFFF0007FFF8000000000AC
:101A80000000000000000000000000000000000056
:101A90000000000000000000000000000000000046
:101AA0000000000000000000000000005645523F0A
:101AB0004F444620322E320056657273696F6E3A7B
:101AC000200007077DAE4CD838DF000C07FFE80385
:101AD000AA9AA9AA9803FFE08014FFFFFFFFFFFF67
:101AE000FFFFFFFFFFFFFFFFFFFFFFFFFFFFFFFF06
:101AF000FFFFFFFFFFFFFFFFFFFFFFFFFFFFFFFFF6
:101B0000FFFFFFFFFFFFFFFFFFFFFFFFFFFFFFFFE5
:101B1000FFFFFFFFFFFFFFFFFFFFFFFFFFFFFFFFD5
:101B2000FFFFFFFFFFFFFFFFFFFFFFFFFFFFFFFFC5
:101B3000FFFFFFFFFFFFFFFFFFFFFFFFFFFFFFFFB5
:101B4000FFFFFFFFFFFFFFFFFFFFFFFFFFFFFFFFA5
:101B5000FFFFFFFFFFFFFFFFFFFFFFFFFFFFFFFF95
:101B6000FFFFFFFFFFFFFFFFFFFFFFFFFFFFFFFF85
:101B7000FFFFFFFFFFFFFFFFFFFFFFFFFFFFFFFF75
:101B8000FFFFFFFFFFFFFFFFFFFFFFFFFFFFFFFF65
:101B9000FFFFFFFFFFFFFFFFFFFFFFFFFFFFFFFF55
:101BA000FFFFFFFFFFFFFFFFFFFFFFFFFFFFFFFF45
:101BB000FFFFFFFFFFFFFFFFFFFFFFFFFFFFFFFF35
:101BC000FFFFFFFFFFFFFFFFFFFFFFFFFFFFFFFF25
:101BD000FFFFFFFFFFFFFFFFFFFFFFFFFFFFFFFF15
:101BE000FFFFFFFFFFFFFFFFFFFFFFFFFFFFFFFF05
:101BF000FFFFFFFFFFFFFFFFFFFFFFFFFFFFFFFFF5
:101C0000FFFFFFFFFFFFFFFFFFFFFFFFFFFFFFFFE4
:101C1000FFFFFFFFFFFFFFFFFFFF00000000003E90
:101C20005B4F5B3E3E6B4F6B3E1C3E7C3E1C183C4C
:101C30007E3C181C577D571C1C5E7F5E1C00183CA8
:101C40001800FFE7C3E7FF0018241800FFE7DBE7F1
:101C5000FF30483A060E2629792926407F050507D8
:101C6000407F05253F5A3CE73C5A7F3E1C1C080834
:101C70001C1C3E7F14227F22145F5F005F5F0609F9
:101C80007F017F006689956A606060606094A2FF52
:101C9000A29408047E040810207E201008082A1C44
:101CA00008081C2A08081E101010100C1E0C1E0C10
:101CB00030383E3830060E3E0E06000000000000B0
:101CC000005F00000007000700147F147F14242A1F
:101CD0007F2A1223130864623649562050000807F1
:101CE0000300001C2241000041221C002A1C7F1C12
:101CF0002A08083E08080080703000080808080814
:101D0000000060600020100804023E5149453E007A
:101D1000427F400072494949462141494D331814D8
:101D2000127F1027454545393C4A49493141211127
:101D300009073649494936464949291E0000140019
:101D4000000040340000000814224114141414143C
:101D5000004122140802015909063E415D594E7C9A
:101D60001211127C7F494949363E414141227F414F
:101D700041413E7F494949417F090909013E4141AD
:101D800051737F0808087F00417F41002040413F98
:101D9000017F081422417F404040407F021C027FA7
:101DA0007F0408107F3E4141413E7F090909063EFC
:101DB0004151215E7F0919294626494949320301CB
:101DC0007F01033F4040403F1F2040201F3F4038DD
:101DD000403F631408146303047804036159494DB8
:101DE00043007F4141410204081020004141417FEE
:101DF0000402010204404040404000030708002064
:101E0000545478407F284444383844444428384463
:101E100044287F385454541800087E090218A4A49A
:101E20009C787F0804047800447D40002040403DB9
:101E3000007F1028440000417F40007C0478047833
:101E40007C080404783844444438FC1824241818C6
:101E5000242418FC7C080404084854545424040422
:101E60003F44243C4040207C1C2040201C3C40300F
:101E7000403C44281028444C9090907C4464544C3E
:101E80004400083641000000770000004136080099
:101E900002010204023C2623263C1EA1A161123A43
:101EA0004040207A3854545559215555794122548F
:101EB000547842215554784020545579400C1E5294
:101EC0007212395555555939545454593955545439
:101ED000580000457C410002457D420001457C40A0
:101EE0007D1211127DF0282528F07C5455450020E4
:101EF00054547C547C0A097F4932494949323A4456
:101F000044443A324A4848303A4141217A3A4240C0
:101F10002078009DA0A07D3D4242423D3D40404092
:101F20003D3C24FF2424487E4943662B2FFC2F2B65
:101F3000FF0929F620C0887E090320545479410006
:101F400000447D413048484A32384040227A007A85
:101F50000A0A727D0D19317D2629292F2826292963
:101F6000292630484D402038080808080808080885
:101F7000382F10C8ACBA2F102834FA00007B0000AC
:101F800008142A142222142A14085500550055AAB0
:101F900055AA55AAFF55FF55FF000000FF0010107D
:101FA00010FF00141414FF001010FF00FF1010F0B9
:101FB00010F0141414FC001414F700FF0000FF00CC
:101FC000FF1414F404FC141417101F10101F101F1A
:101FD0001414141F00101010F0000000001F101047
:101FE00010101F10101010F010000000FF10101043
:101FF000101010101010FF10000000FF140000FF60
:1020000000FF00001F10170000FC04F41414171048
:10201000171414F404F40000FF00F714141414143B
:102020001414F700F7141414171410101F101F14B1
:102030001414F4141010F010F000001F101F000012
:10204000001F14000000FC140000F010F01010FF3E
:1020500010FF141414FF141010101F00000000F0E3
:1020600010FFFFFFFFFFF0F0F0F0F0FFFFFF0000B8
:10207000000000FFFF0F0F0F0F0F3844443844FCDF
:102080004A4A4A347E02020606027E027E026355F6
:102090004941633844443C04407E201E2006027EB1
:1020A000020299A5E7A5991C2A492A1C4C720172C3
:1020B0004C304A4D4D303048784830BC625A463D2D
:1020C0003E494949007E0101017E2A2A2A2A2A44E2
:1020D000445F444440514A444040444A5140000017
:1020E000FF0103E080FF000008086B6B0836123622
:1020F0002436060F090F0600001818000000101003
:10210000003040FF0101001F01011E00191D1712C0
:10211000003C3C3C3C000000000041726300426116
:10212000720042756C6C65747300536F6C69640067
:1021300020203C2043616C696272617465203E001E
:102140005374616E64616C6F6E65203976004C6902
:10215000506F2031312E3476004C69506F20372E6D
:102160003476004E694D4820392E367620382D635E
:10217000656C6C004E694D4820382E347620372D22
:1021800063656C6C0052617720766F6C7461676573
:1021900000466163746F72792072657365740043E1
:1021A00074722042746E2052656C6F616400416DE0
:1021B0006D6F2062617220666C61736800416D6DA5
:1021C0006F20626172206469722E2000416D6D6F14
:1021D00020426172205374796C6500416D6D6F20EF
:1021E000636F6C6F722028312F332900416D6D6F42
:1021F00020636F6C6F722028322F332900416D6D80
:102200006F20636F6C6F72202846756C6C290042DA
:1022100061636B67726F756E6420636F6C6F7200C1
:10222000554920436F6C6F7200526F746174652062
:102230005549203930206467727300363A00353AC8
:1022400000343A00333A00323A00313A003C3C2044
:102250004261636B004E6578742070616765203E53
:102260003E0053617665206272696768746E6573BB
:1022700073004261747465727920736574757000BF
:1022800055492053657474696E67730053657420F3
:1022900074696D65004D616E61676520507265738C
:1022A000657473003C3C2053617665202620457898
:1022B000697400090C0D0800020100000304070006
:1022C00000000000000000000000000000000025E9
:1022D0000028002B002E0000000000240027002A08
:1022E000002D000404040404040404020202020297
:1022F0000203030303030305050505010204081097
:10230000204080010204081020010204081020046B
:102310000801022A2122211E211A2185217421630C
:102320002159214E21402130214D22CC21BD21AE09
:10233000219F2191214D22292220220F22FD21ECD3
:1023400021DB214D224A224722442241223E223BC8
:1023500022A42295228C22802272226222552200FF
:10236000D73811241FBECFEFD8E0DEBFCDBF11E0BC
:10237000A0E0B1E0E2E1FDE702C005900D92AA3DC8
:10238000B107D9F724E0AAEDB1E001C01D92A33353
:10239000B207E1F711E1C1EBD1E104C02197FE01E1
:1023A0000E947C3EC03BD107C9F70E941B2E0C94B3
:1023B000873E0C940000F8944B9920C080911D0238
:1023C00081111EC0E091E901F0E0EE0FFF1FE3561E
:1023D000FD4F208131818091EA019091EB0137FF1F
:1023E00002C0019601C001979093EB018093EA012E
:1023F00081E08093EC0180931D0202C010921D02C7
:1024000078940895089508958EE393E0909391024F
:1024100080939002ECEAF3E08091DE0190E0019776
:1024200024E0880F991F2A95E1F72BE230E0A901FB
:10243000481B590B5587448782E790E0978786872A
:102440008FE60C94B622EF92FF920F931F93409168
:10245000DE012091210230912202423069F04330A6
:1024600021F04130B1F4207E0EC03770982F8827BC
:10247000990F990F990F07C02F71387F45E0880F8A
:10248000991F4A95E1F7822B932B90932202809318
:102490002102E0902102F090220208E110E028E100
:1024A00030E040E150E068E570E08CEA93E00E94A3
:1024B0008E2C1F910F91FF90EF9008958093DE0175
:1024C000813059F088F0823029F0833079F52AE2A2
:1024D00033E005C026E133E002C022E033E0309370
:1024E00091022093900222C0E0911F02F0912002FD
:1024F00080912102909122029183808380919502A4
:102500009091960220919302309194023093BD03F2
:102510002093BC039093BF038093BE0328E045E063
:102520006FE671E084E493E00C94612490E00197FD
:1025300024E0880F991F2A95E1F72BE230E0A901EA
:10254000481B590B5093B9034093B80382E790E0BE
:102550009093BB038093BA038EE50C94B622EF925E
:10256000FF920F931F93CF93DF93EC01809166034B
:1025700090E0FC01EE0FFF1FE556FD4FD183C083B5
:1025800024E633E03093910220939002E09095028C
:10259000F090960240917003509171032091720364
:1025A00030917303240F351F289FB001299F700DB0
:1025B000389F700D112440916C0350916D034E5F54
:1025C0005F4F460F571F0AE010E02AE030E060E559
:1025D00070E08CEA93E00E945F1DCD2B61F52091A5
:1025E0007003309171038091720390917303280FEF
:1025F000391F80916603829FA001839F500D112493
:1026000080916C0390916D030296840F951F2AE5CB
:1026100030E03093B9032093B8039093BB038093C9
:10262000BA038BE791E0DF91CF911F910F91FF905B
:10263000EF900C942A23DF91CF911F910F91FF907F
:10264000EF900895CF93DF93EC01209170033091C8
:1026500071038091720390917303280F391F809149
:102660006603829FA001839F500D112480916C030B
:1026700090916D030296840F951F2AE530E0309308
:10268000B9032093B8039093BB038093BA03D7FF99
:1026900005C08FE791E00E942A2303C0CE010E946B
:1026A000FC2280E20E94B622C53F21E0D20754F00E
:1026B0008091DB019091DC018E3E924030F081E010
:1026C00090E00FC0C536D10554F08091DB019091A8
:1026D000DC018E3E924018F084E190E002C084E676
:1026E00090E090935F0380935E03DF91CF91089514
:1026F000CF93811103C0CF910C947E22C82F2091DB
:102700007003309171038091720390917303280FCD
:10271000391FC29FA001C39F500D112480916C03EB
:1027200090916D030296840F951F20E530E0309361
:10273000B9032093B8039093BB038093BA038EE34D
:102740000E94B6222091660330E0409170035091C0
:1027500071038091720390917303480F591F429F38
:10276000B001439F700D529F700D112480916C0336
:1027700090916D030296860F971F4AE550E05093A3
:10278000B9034093B8039093BB038093BA03C1305D
:1027900019F481E090E002C08FEF9FEF909359030E
:1027A0008093580386E593E0909391028093900282
:1027B000220F331FF901E556FD4F808191819093DF
:1027C0005D0380935C0397FF05C08FE791E00E9453
:1027D0002A2302C00E94FC2282E891E0CF910C944F
:1027E0002A23863019F08093AB0203C08FE78093D1
:1027F000AC020C947E220F931F9380911E028823BB
:1028000089F1813009F058C08FE790E09093E7029A
:102810008093E60281E89FEF9093E5028093E402C3
:102820008091B102082E000C990B9093E9028093DD
:10283000E80200919502109196022CE030E04EE300
:1028400050E064E470E08CEA93E00E94F62C009182
:1028500093021091940228E130E048E550E064E3EF
:1028600070E025C08BE390E09093E7028093E6024E
:102870008091300490E09093E9028093E802009107
:102880009502109196022CE030E04EE350E062E3B6
:1028900070E08CEA93E00E94F62C00919302109174
:1028A00094022CE030E04EE350E064E470E08CEA07
:1028B00093E00E94F62C05C081E08093DA010E942B
:1028C0007E2280911E028F5F80931E021F910F91C6
:1028D000089580911E02813079F048F08230E1F451
:1028E0008091E8028093B1020E942F2215C080914E
:1028F000E8028093310404C08091E80280933004A0
:1029000082E390E09093B9038093B8039093BB0364
:102910008093BA030E9443220C942F22823009F440
:1029200042C028F4882361F0813061F0089584303A
:1029300009F472C008F461C0853009F499C00895A3
:102940000C947E228091AB028093D20222E149E076
:102950006FE871E08EEB92E00E9461242091CA0240
:102960003091CB028091CC029091CD02280F391F7B
:102970008091AE02829FA001839F500D112480910F
:10298000C6029091C7020296840F951F28E030E09E
:102990003093B9032093B8039093BB038093BA0399
:1029A0008EE30C94B6229091AD0281E0892780934A
:1029B000AD0224E630E03093B9032093B8032EE251
:1029C00030E03093BB032093BA03209193023091FF
:1029D000940240919502509196025093BD0340930A
:1029E000BC033093BF032093BE03811103C088E86A
:1029F00091E03BC085E891E038C09091AF0281E062
:102A000089278093AF0224E630E03093B903209306
:102A1000B8032EE330E00EC09091B00281E0892728
:102A20008093B00224E630E03093B9032093B803DA
:102A30002EE430E03093BB032093BA03209193023D
:102A40003091940240919502509196025093BD03AB
:102A50004093BC033093BF032093BE03811103C096
:102A60008BE791E002C08BE891E00E942A2334C0FA
:102A7000809123028F5F80932302863020F00E9492
:102A80004C1F0C94F72184E690E09093B903809357
:102A9000B8038EE590E09093BB038093BA038091D6
:102AA0009302909194022091950230919602309376
:102AB000BD032093BC039093BF038093BE038EE3BA
:102AC0000E94B6229091230226E030E0A901491B22
:102AD0005109CA010E94FC228091950290919602B0
:102AE00020919302309194023093BD032093BC0354
:102AF0009093BF038093BE0308958093AE020C941D
:102B00006422EF92FF920F931F93CF93DF9390E095
:102B10008730910508F063C1FC01E65AFF4F0C9421
:102B20007C3EF999FECF03E912E0C2E0D0E0F80163
:102B300061918F01CE010E949A3A2196C132D1054E
:102B4000B1F7DF91CF911F910F91FF90EF900C940F
:102B5000F72128E042E06EE971E084E693E00E940C
:102B600061240DE912E0C1E0D0E08AE5E82EF12C05
:102B70008091670390E0C817D9070CF030C120910D
:102B80007003309171038091720390917303280F49
:102B9000391F2C9FA0012D9F500D3C9F500D1124DB
:102BA00080916C0390916D030296840F951FF092B3
:102BB000B903E092B8039093BB038093BA03F80182
:102BC000819191918F0197FF03C08FE791E007C03A
:102BD000009719F00E94FC2204C08BE791E00E944C
:102BE0002A232196C5CF10921E0282EE92E0909386
:102BF0009102809390028091310490E09093E902D9
:102C00008093E80287E190E09093E7028093E602E8
:102C10001092E5021092E402609195027091960282
:102C20008CEA93E00E94C327C2E3D0E0D093B903BB
:102C3000C093B80386E290E09093BB038093BA03FD
:102C400086EA91E00E942A23D093B903C093B80387
:102C5000D093BB03C093BA030E9443220091930216
:102C6000109194022CE030E04EE350E062E370E01B
:102C70008CEA93E00E94F62C8EE190E09093B903E9
:102C80008093B80382E490E09093BB038093BA03EF
:102C90008CEA91E00E942A23DF91CF911F910F913E
:102CA000FF90EF900C942F2228E045E06FE671E052
:102CB00084E493E0DF91CF911F910F91FF90EF900B
:102CC0000C9461248091AB028093D20222E148E00F
:102CD00069EB71E080ED92E00E9461242091DC02BA
:102CE0003091DD028091DE029091DF02280F391FC2
:102CF0008091AB02829FA001839F500D112480918F
:102D0000D8029091D9020296840F951F28E030E0F6
:102D10003093B9032093B8039093BB038093BA0315
:102D20008EE3DF91CF911F910F91FF90EF900C9464
:102D3000B622F999FECF6091E50181E090E00E9412
:102D40009A3A809193029091940220919502309149
:102D500096023093BD032093BC039093BF038093EE
:102D6000BE0320918203309183038091840390916C
:102D70008503280F391F85E0829FA001839F500D96
:102D8000112480917E0390917F030296840F951FFA
:102D900029E630E03093B9032093B8039093BB0346
:102DA0008093BA0387EC91E00E942A2380919502D8
:102DB0009091960220919302309194023093BD033A
:102DC0002093BC039093BF038093BE0308C0DF91A0
:102DD000CF911F910F91FF90EF900C946422DF919F
:102DE000CF911F910F91FF90EF900895EF92FF9276
:102DF0000F931F9380914003811141C0E090930293
:102E0000F09094020CE010E028E330E044E650E05B
:102E100060E470E08CEA93E00E948E2C8091930233
:102E20009091940220919502309196023093BD03C7
:102E30002093BC039093BF038093BE0380E590E092
:102E40009093B9038093B80386E690E09093BB0318
:102E50008093BA038AEC91E00E942A238091950224
:102E60009091960220919302309194023093BD0389
:102E70002093BC039093BF038093BE0319C090E0DE
:102E8000019734E0880F991F3A95E1F72BE230E083
:102E9000A901481B590B5093B9034093B80382E72B
:102EA00090E09093BB038093BA038FE60E94B62212
:102EB0008091DE0190914003981709F450C0811170
:102EC00031C0E0909302F09094020CE010E028E30F
:102ED00030E044E650E060E470E08CEA93E00E9469
:102EE000BF1BE0909502F09096020AE010E026E306
:102EF00030E045E650E061E470E08CEA93E00E9447
:102F00008E2C80E590E09093B9038093B80386E619
:102F100090E09093BB038093BA038AEC91E00E9407
:102F20002A2319C0E0909502F090960290E0019754
:102F300024E0880F991F2A95E1F76BE270E0681B87
:102F4000790B0AE010E02CE030E042E750E08CEA38
:102F500093E00E948E2C809140038093DE011F91AC
:102F60000F91FF90EF900895EF92FF920F931F93B0
:102F7000CF93DF9323E0209392021092DE0190938F
:102F8000200280931F02FC01808191819093220294
:102F9000809321028EE393E09093910280939002BC
:102FA000C3E9D2E06A817B818CEA93E00E94C32767
:102FB000EAE2F3E0809122028695869586958683E3
:102FC000178268E0CF010E948F24809121029091A6
:102FD0002202807E977025E0969587952A95E1F7E5
:102FE00090931D0380931C0368E186E193E00E94A7
:102FF0008F2480912102909122028F7199279093C2
:1030000009038093080368E282E093E00E948F2422
:10301000E880F9800CE010E028E330E044E650E07E
:1030200060E470E08CEA93E00E94BF1B0CEA13E0BE
:1030300080E590E0F8019587848785E690E09787A2
:1030400086878AEC91E00E942A238AE090E0F801CA
:103050009587848797878687E0902102F0902202E7
:1030600008E110E028E130E040E150E068E570E080
:10307000CF010E948E2CE880F9800AE110E02AE15D
:1030800030E04FE050E067E570E08CEA93E00E94AA
:10309000BF1BDF91CF911F910F91FF90EF900C9488
:1030A000F61690E08730910560F5FC01EF59FF4F6F
:1030B0000C947C3E0C947E2283E992E002C085E968
:1030C00092E00C94B41787E992E0FBCF89E992E093
:1030D000F8CF8BE992E0F5CF6091AA02633010F44B
:1030E0006F5F01C060E06093AA028CEA93E00E94E7
:1030F000172C28E045E06FE671E084E493E00C943F
:1031000061240895E091E901F0E0EE0FFF1FE3561E
:10311000FD4F8081918197FF02C080E090E0909305
:10312000EB018093EA0182E08093EC010895682F1F
:103130008091900290919102009739F0DC01ED911D
:10314000FC910190F081E02D0994623059F018F45F
:10315000613051F10895633009F440C06F3F09F4C4
:1031600066C0089580919202882319F08F3FD1F0B4
:1031700008958091E9018093DF0181E08093E60169
:103180008093E4010E9462296093E0017093E10161
:103190008093E2019093E3018091B002882309F4C7
:1031A00048C045C00C947E2280919202811141C09A
:1031B0008091E6018823E9F18091DF01882311F0F5
:1031C000815001C085E0E82FF0E0EE0FFF1FE356CD
:1031D000FD4F20813181232B89F319C08091920208
:1031E000811127C08091E601882319F18091DF01C8
:1031F000853010F48F5F01C080E0E82FF0E0EE0F23
:10320000FF1FE356FD4F20813181232B89F38093EB
:10321000DF0181E08093E4010E9462296093E00174
:103220007093E1018093E2019093E30108950C947F
:10323000821808958091EF014A9913C0811119C035
:103240008091ED019091EE01049798F08FEF0E942C
:10325000971881E08093EF011092F7031092F60324
:1032600004C0882331F01092EF011092EE01109209
:10327000ED0108951F920F920FB60F9211240F9037
:103280000FBE0F901F9018951F920F920FB60F92BE
:1032900011242F933F934F935F936F937F938F935B
:1032A0009F93AF93BF93EF93FF938091F201309977
:1032B00013C0811119C08091F0019091F101049720
:1032C00098F082E00E94971881E08093F2011092BA
:1032D000FD011092FC0104C0882331F01092F2012C
:1032E0001092F1011092F00180910202319913C005
:1032F000811119C08091F6019091F701049798F01F
:1033000081E00E94971881E0809302021092FB01F5
:103310001092FA0104C0882331F010920202109238
:10332000F7011092F6018091F501639913C08111A4
:1033300019C08091F3019091F401049798F083E013
:103340000E94971881E08093F5011092FF0110927E
:10335000FE0104C0882331F01092F5011092F401AF
:103360001092F301FF91EF91BF91AF919F918F91D7
:103370007F916F915F914F913F912F910F900FBE71
:103380000F901F9018951F920F920FB60F92112455
:103390002F933F934F935F936F937F938F939F935D
:1033A000AF93BF93EF93FF930E944419FF91EF9166
:1033B000BF91AF919F918F917F916F915F914F914D
:1033C0003F912F910F900FBE0F901F9018959091E5
:1033D0009202923001F51092DD012091DB013091D3
:1033E000DC0140910302509104026091050270914A
:1033F0000602420F531F611D711D4F3E92E0590797
:103400006105710520F04EEE52E060E070E05093EF
:10341000DC014093DB01A0919002B09191021097E2
:1034200079F0482F50E0440F551F48505E4FED9102
:10343000FC9111970280F381E02D682FCD01099452
:103440000895FC01628308950895FC016370658B03
:103450008481958126813781613039F0633029F08C
:1034600091878087338722870895318720879387C4
:10347000828708952F923F924F925F926F927F9230
:103480008F929F92AF92BF92CF92DF92EF92FF9274
:103490000F931F93CF93DF93CDB7DEB764970FB62B
:1034A000F894DEBF0FBECDBF9C8B8B8B162F6A307E
:1034B000B1F4DC011D961C921E921C9754962C911F
:1034C00054971E968D919C911F97B8E02B9F800D6D
:1034D000911D1124EB89FC899787868735C16D3052
:1034E00009F432C1AB89BC8956968C915697549693
:1034F000BC91B983EB89FC8920853185882301F152
:1035000084859585F6E0BF9F800D911D11242817B5
:103510003907B4F4AB89BC891D961C921E921C9786
:103520001E968D919C911F97E981B8E0EB9F800DCD
:10353000911D1124AB89BC891F969C938E931E9775
:10354000EB89FC89A484B584A216B3060CF0ECC008
:103550008684978482859385881699060CF0E4C04A
:10356000F981CF2ED12C950146E0F49F200D311D1D
:1035700011243A872987121613060CF0D5C0C6010C
:1035800023E0880F991F2A95E1F79C878B87880D88
:10359000991D181619060CF0C7C0AB89BC8957963F
:1035A0008C91811103C0103B08F01F5FEB89FC89EF
:1035B00062887388208931893B832A830190F08156
:1035C000E02D0284F385E02D8B899C89099535E0F7
:1035D000139FB0011124A5014B5F5F4F5E874D879C
:1035E000BD82AC822501CB018A199B09988B8F87FC
:1035F000D4011896BA8BA98BEF85F889E40DF51DD7
:10360000E65EF34EB491B8879F828E821401E885FE
:10361000E0FF13C0AB89BC89ED91FC91B981B13059
:1036200031F40484F585E02D2A813B8116C006849F
:10363000F785E02DEA80FB801AC0EA81FB816E16D7
:103640007F06F1F0AB89BC89ED91FC91B981B13075
:1036500051F40484F585E02D9301A101B2018B8919
:103660009C8909950DC00684F785E02D73018601BC
:1036700096014E815F816C817D818B899C89099542
:10368000E885E695E887FFEF2F1A3F0A2E813F81F4
:103690002C0D3D1D3F832E8349895A8942155305C0
:1036A00009F0B5CF5FEF451A550A8C819D818C0DCD
:1036B0009D1D9D838C83AD85BE854A165B0609F0F2
:1036C0009BCFEA81FB816E167F0621F1AB89BC8915
:1036D000ED91FC91B981B13071F4B5016B5F7F4F11
:1036E0000088F189E02D830128E030E0A4018B8976
:1036F0009C8909950FC069857A856C197D090684B6
:10370000F785E02D73010B851C859601A4018B893B
:103710009C890995AB89BC89ED91FC91119706882C
:10372000F789E02DCD010995EB89FC8924898485F1
:103730009585F6E02F9F800D911D1124AB89BC89E2
:103740001D969C938E931C9781E090E064960FB633
:10375000F894DEBF0FBECDBFDF91CF911F910F91C7
:10376000FF90EF90DF90CF90BF90AF909F908F90A1
:103770007F906F905F904F903F902F9008956F9241
:103780007F928F929F92AF92BF92CF92DF92EF92F1
:10379000FF920F931F93CF93DF93EC014B015A01DC
:1037A00069013801E881F9810284F385E02D0995EA
:1037B000E881F9810288F389E02D87019601A5014E
:1037C000B401CE010995A501460D571D415051097F
:1037D000E881F9810288F389E02D9601B401CE01D8
:1037E0000995E881F9810088F189E02D9301A5010F
:1037F000B401CE010995C80CD91CB60161507109FC
:10380000E881F9810088F189E02D9301A501CE01BD
:103810000995E881F9810688F789E02DCE01DF91CD
:10382000CF911F910F91FF90EF90DF90CF90BF90BD
:10383000AF909F908F907F906F9009948F929F92FE
:10384000AF92BF92CF92DF92EF92FF920F931F93AE
:10385000CF93DF934C016B015A01E901DC01ED913B
:10386000FC916217730781F40417150724F48B2D5C
:103870005801042F182F0A191B0998012F5F3F4F79
:10388000048CF58DE02D12C04017510709F526175D
:10389000370724F48D2D6901C62FD82F9E012C19CE
:1038A0003D092F5F3F4F068CF78DE02D8701A50165
:1038B000B601C4010995DF91CF911F910F91FF903F
:1038C000EF90DF90CF90BF90AF909F908F90089532
:1038D0000284F385E02D0995D401ED91FC910488D3
:1038E000F589E02D9E01A501B601C4010995D40119
:1038F000ED91FC910688F789E02DC401DF91CF910D
:103900001F910F91FF90EF90DF90CF90BF90AF90FD
:103910009F908F900994EF92FF920F931F93DC0179
:103920001A960D911C911B9718962D913C91199701
:10393000ED91FC9100A0F1A1E02D7B0140E050E071
:1039400060E070E009951F910F91FF90EF9008954E
:103950004F925F926F927F928F929F92AF92BF929F
:10396000CF92DF92EF92FF920F931F93CF93DF934B
:103970006C012B015A0139014801DC01ED91FC91E8
:103980000284F385E02D0995E201640C751CD601D3
:10399000ED91FC91C615D7055CF40088F189E02D06
:1039A00087019401A501BE01C60109952196EFCFBB
:1039B0000688F789E02DC601DF91CF911F910F9105
:1039C000FF90EF90DF90CF90BF90AF909F908F903F
:1039D0007F906F905F904F9009948F929F92AF92DB
:1039E000BF92CF92DF92EF92FF920F931F93CF93EC
:1039F000DF93EC015B014A016901E881F9810284EE
:103A0000F385E02D099595012C0D3D1D21503109BF
:103A1000E881F9810488F589E02D78018401A40109
:103A2000B501CE010995E881F9810688F789E02D75
:103A3000CE01DF91CF911F910F91FF90EF90DF901A
:103A4000CF90BF90AF909F908F9009948F929F924C
:103A5000AF92BF92CF92DF92EF92FF920F931F939C
:103A6000CF93DF93EC015B014A0169017801E881A2
:103A7000F9810284F385E02D0995C80CD91C8601D3
:103A800001501109E881F9810488F589E02D95013B
:103A9000A401B501CE010995E881F9810688F7896D
:103AA000E02DCE01DF91CF911F910F91FF90EF900C
:103AB000DF90CF90BF90AF909F908F900994EF923E
:103AC000FF920F931F93DC01ED91FC9100A0F1A1F7
:103AD000E02D09951F910F91FF90EF9008950F939E
:103AE0001F93DC01ED91FC91068CF78DE02D09957B
:103AF0001F910F9108950F931F93DC01ED91FC919D
:103B0000048CF58DE02D09951F910F910895DC012E
:103B1000ED91FC910084F185E02D09942F923F9264
:103B20004F925F926F927F928F929F92AF92BF92CD
:103B3000CF92DF92EF92FF920F931F93CF93DF9379
:103B400000D000D000D0CDB7DEB72C017E836D83CE
:103B50006A015901C801FC82EB824801841A950A66
:103B600097FE03C091948194910835012D813E8187
:103B7000621A730A77FE03C0719461947108681425
:103B800079045CF43A2D2B2D5C01832F922F3D811B
:103B90002E81DE82CD82C32ED22EAD81BE81AA16A9
:103BA000BB065CF43C2D2D2D6C01832F922F3D81A3
:103BB0002E81BE82AD82A32EB22E85012D813E8143
:103BC000021B130B1C012C183D0837FE03C0319457
:103BD00021943108780117FF03C03FEFE31AF30A7D
:103BE000F594E794C816D9062CF08FEF9FEF9A83CF
:103BF000898304C0A1E0B0E0BA83A9832D813E810E
:103C0000A216B30624F1D201ED91FC910484F5854E
:103C1000E02D2B813C816814790424F44D815E8170
:103C2000B60103C0A6016D817E81C2010995E2182B
:103C3000F308F7FE06C029813A81C20ED31EE00EBA
:103C4000F11E8D819E8101969E838D83D7CF26960E
:103C50000FB6F894DEBF0FBECDBFDF91CF911F919D
:103C60000F91FF90EF90DF90CF90BF90AF909F901B
:103C70008F907F906F905F904F903F902F9008951E
:103C8000089580E090E008959F92AF92BF92CF9206
:103C9000DF92EF92FF920F931F93CF93DF93EC018C
:103CA000962E4C855D8583E9A82E82E0B82EF5011D
:103CB000E280F3808A01025011092A853B85225057
:103CC00031098E859F85840F951F4A81489FB001D9
:103CD000499F700D1124488559854F5F5F4F460FEE
:103CE000571F6E817F816F5F7F4F8CEA93E00E9448
:103CF0008E2C2C853D858E859F85280F391F8A81C6
:103D0000829FA001839F500D11248885998502967A
:103D1000840F951F2CEAC22E23E0D22E2E813F81E4
:103D20002E5F3F4FF60135872487978786878A81E4
:103D300028899989E22FF92FE80FF11DE80FF11D6D
:103D4000859194910E94AC239A820C851D85F50182
:103D5000E080F1802A853B858E859F85800F911FAD
:103D6000989EA001999E500D112488859985480F31
:103D7000591F6E817F81C6010E948E2CF5018081C2
:103D8000918122813381F601318B208B938B828B41
:103D90002C853D858E859F85280F391F8A81829FBE
:103DA000A001839F500D1124888599850296840F68
:103DB000951F2E813F812E5F3F4F35872487978740
:103DC00086878A8128899989E22FF92FE80FF11DCA
:103DD000E80FF11D859194910E94AC23F501828139
:103DE000938120813181F601318B208B938B828BE3
:103DF000DF91CF911F910F91FF90EF90DF90CF90C7
:103E0000BF90AF909F9008950F931F93E3E9F2E066
:103E1000028113812091E7013091E801638D82E4F2
:103E200091E0689FA001699F500D11244852554EA2
:103E300060E070E080E090E00E942C231F910F91E1
:103E400008950F931F93CF93DF93F999FECF80E0EE
:103E500090E00E94923A823031F0DF91CF911F9131
:103E60000F910C944C1F81E090E00E94923A809355
:103E7000E50103E912E0C2E0D0E0CE010E94923AEF
:103E8000F80181938F012196C132D105B1F7DF91FD
:103E9000CF911F910F910895EF92FF920F931F936F
:103EA000CF93DF93CDB7DEB76F970FB6F894DEBF31
:103EB0000FBECDBFF999FECF62E080E090E00E9496
:103EC000AC3A64E681E090E00E94AC3A80EE9FEF6D
:103ED0009A8389831C821B8280EE97E09E838D8368
:103EE00080EA9FEF98878F8380E098EF9A87898791
:103EF0008EE190E09C878B878EE591E09E878D8791
:103F000080ED97E0988B8F871A8A198A1C8A1B8A02
:103F10001E8A1D8A188E81E08C8F1B8E8D8F198EC4
:103F20008E8F1F8E1A8ECE0101967C0102E010E06A
:103F3000F70161917F01C8010E94AC3A0F5F1F4FEA
:103F400001321105A9F76F960FB6F894DEBF0FBEC8
:103F5000CDBFDF91CF911F910F91FF90EF900C9407
:103F6000211FCF93DF938BE390E09093B90380936D
:103F7000B8038DE690E09093BB038093BA0382E090
:103F80008093C0038091E601882319F08091DF01BE
:103F900002C08091E90190E001960E94FC2281E03C
:103FA0008093C0038091E601882329F080919302D9
:103FB0009091940204C08091950290919602909302
:103FC000BF038093BE039093BD038093BC0381E342
:103FD00090E09093B9038093B803CDE6D0E0D093FE
:103FE000BB03C093BA038CE30E94B62289E490E03D
:103FF0009093B9038093B803D093BB03C093BA03E3
:104000008EE30E94B62280919502909196022091B3
:104010009302309194023093BD032093BC0390939C
:10402000BF038093BE03DF91CF910895AF92BF92FB
:10403000CF92DF92EF92FF920F931F932091E501B1
:10404000822F90E0A0E0B0E09C01AD012150310949
:1040500041095109A4E6B0E00E94D93A2EEF30E0C0
:1040600040E050E00E94BA3ACC24DD24C21AD30AC0
:10407000E3E9F2E0E080F18002811381A12CB12C10
:1040800026E030E044E650E06EE170E083E190E04D
:104090000E9453251F910F91FF90EF90DF90CF90DA
:1040A000BF90AF900895EF92FF920F931F93CF931D
:1040B000DF93C3E9D2E00A811B812881398143EA79
:1040C00051E06CE170E082E090E00E942C23E880F7
:1040D000F98008E010E028E630E04DE150E060E1D2
:1040E00070E08CEA93E00E948E2CDF91CF911F91BB
:1040F0000F91FF90EF9008952F923F924F925F9211
:104100006F927F928F929F92AF92BF92CF92DF92E7
:10411000EF92FF920F931F93CF93DF93CDB7DEB74C
:1041200029970FB6F894DEBF0FBECDBF282F81119F
:1041300029C0E0909502F090960204E110E020E89A
:1041400030E040E050E060E070E08CEA93E00E94F4
:104150008E2C29960FB6F894DEBF0FBECDBFDF912F
:10416000CF911F910F91FF90EF90DF90CF90BF9074
:10417000AF909F908F907F906F905F904F903F9007
:104180002F9008958038D1F429960FB6F894DEBFA9
:104190000FBECDBFDF91CF911F910F91FF90EF9098
:1041A000DF90CF90BF90AF909F908F907F906F9057
:1041B0005F904F903F902F900C94041F80E890E008
:1041C000821B91092091AD02222319F091958195CE
:1041D0009109209195022B83409196024C83509136
:1041E000E7015D83E091E801EE836091AE0242E475
:1041F00051E0649F9001659F300D1124A901485240
:10420000554E7A01FA01F491F887FA01319624911A
:104210002F8397FF05C0482F41954A83D12C02C0B8
:10422000D82E1A820F8101502885215040E060E08D
:104230008CEA93E00E944F2CF701329654915983F7
:104240008885082F10E09F81A92EB12C899F10012D
:1042500011248CEA93E00E94C62B19861886612CE3
:10426000512C712C48018D18910801501109E885D5
:10427000F9852E163F0609F455C0F9818F2F90E07D
:1042800020E830E0062C02C0359527950A94E2F725
:1042900082239323C72CD12C892B69F02A81721693
:1042A00050F0C814D9043CF4852D90E04424439484
:1042B0008A159B050CF0412C8CEA93E00E94BC2BE4
:1042C000411002C08C8101C08E810E94DD2B8CEADE
:1042D00093E00E94BC2B411002C08B8101C08D81F4
:1042E0000E94DD2B488559854F5F5F4F598748876E
:1042F00056E0561510F063940DC0E885F98583E00B
:10430000F695E7958A95E1F73296EE0DFF1D8491BB
:104310008983612CC016D10614F47394A8CF5394EA
:10432000712CA5CF8CEA93E029960FB6F894DEBFE6
:104330000FBECDBFDF91CF911F910F91FF90EF90F6
:10434000DF90CF90BF90AF909F908F907F906F90B5
:104350005F904F903F902F900C94D22BE091E90109
:10436000F0E0EE0FFF1FE356FD4F2081318137FF54
:104370000AC080919702909198029093E8018093EF
:10438000E70180E032C06091EA017091EB011616FE
:10439000170614F5CB01770FAA0BBB0BBC01CD019F
:1043A00047E0660F771F881F991F4A95D1F7032EA4
:1043B000000C440B550B0E94BA3A822F263528F088
:1043C00020919702309198020CC02B3230F020914E
:1043D000990230919A0205C080E020919B023091B1
:1043E0009C023093E8012093E7010C947C200F930A
:1043F0001F93CF93DF93109291021092900210922C
:104400009202C3E9D2E06A817B818CEA93E00E9448
:10441000C3270A811B81288139814BEC5AE160E76F
:1044200070E088E590E00E942C230A811B8128819E
:10443000398142EC5AE160E770E085E290E00E9449
:104440002C230E94AE2181E08093EC010E94B11FD9
:1044500010922302DF91CF911F910F910895ECEA02
:10446000F3E084E390E0958784878EE490E097877B
:1044700086878091B102082E000C990B0E94FC22C5
:1044800080E20C94B622809131048A3018F480E3E3
:104490000E94B6226091310470E080E090E04AE032
:1044A0000E94BB228AE30E94B622809130048A30A7
:1044B00018F480E30E94B6226091300470E080E03E
:1044C00090E04AE00C94BB2228E047E06FEC71E0FA
:1044D00080EF92E00E946124ECEAF3E085E090E056
:1044E0009587848784E790E09787868788EB9AE1B1
:1044F0000E94AC2380EB9AE10C94AC2381E0809382
:10450000920260919502709196028CEA93E00E946B
:10451000C327ECEAF3E088E290E09587848717866A
:10452000168682E791E00E942A234CE050E068E082
:1045300070E086E793E00E94C72386E793E09093BC
:104540009102809390020895009769F0FC01019018
:104550000020E9F73197AF01481B590BBC018CEAE9
:1045600093E00C94C22D80E090E00895682F8CEACF
:1045700093E00C943A1A8F929F92AF92BF920F934E
:104580001F93CF93DF93CDB7DEB7A1970FB6F89403
:10459000DEBF0FBECDBF19A2423008F44AE08E0143
:1045A0000F5D1F4F842E912CA12CB12CA5019401DD
:1045B0000E94E43AE62FB901CA0101501109EA301C
:1045C00014F4E05D01C0E95CD801EC93232B242BAB
:1045D000252B61F7C8010E94A422A1960FB6F8947A
:1045E000DEBF0FBECDBFDF91CF911F910F91BF9066
:1045F000AF909F908F900895CF92DF92EF92FF92AD
:10460000CF93DF936C01990FEE08FF08F7FE17C0F8
:104610008DE20E94B622EC0166277727CB016C1948
:104620007D098E099F094AE00E94BB228C0F9D1FC5
:10463000DF91CF91FF90EF90DF90CF9008954AE007
:10464000C701B601DF91CF91FF90EF90DF90CF903F
:104650000C94BB220C94A4224F925F926F927F9293
:104660008F929F92AF92BF92CF92DF92EF92FF9282
:104670000F931F93CF93DF936A01D22F732E602E77
:10468000512EFA01C4913196E4900FEF060F0E0DF2
:104690002FEF280F2C0F462F682F8CEA93E00E94F3
:1046A0004F2CF60132964490CE9D700111248CEA75
:1046B00093E00E94C62B00E010E0C0E090E8A92E35
:1046C000B12CE016F106A1F1842C912CC5010C2E21
:1046D00002C0959587950A94E2F7882299228CEA80
:1046E00093E00E94BC2B8114910411F4852D01C02C
:1046F000872D0E94DD2B8CEA93E00E94BC2B892839
:1047000011F4862D01C08D2F0E94DD2B0F5F1F4FEE
:10471000C73010F4CF5FD5CFF80183E0F695E79569
:104720008A95E1F73296EC0DFD1D4490C0E0C9CFAB
:104730008CEA93E0DF91CF911F910F91FF90EF9062
:10474000DF90CF90BF90AF909F908F907F906F90B1
:104750005F904F900C94D22B0F931F93CF93DF93C6
:104760008C01C0E0D0E0F801EC0FFD1F64916623DE
:1047700041F08CEA93E00E943A1A892B11F02196BD
:10478000F2CFCE01DF91CF911F910F910895BF928B
:10479000CF92DF92EF92FF920F931F93CF93DF930D
:1047A000EC017F836E8359874887B12C8B81B816C3
:1047B00008F07DC04A810C851D85E0909302F09041
:1047C00094022A853B858E859F85CB2CD12CE8854C
:1047D000F9856E817F81800F911FB4121EC08C9D60
:1047E000A0018D9D500D9C9D500D11244E0F5F1FFB
:1047F0008CEA93E00E948E2C809193029091940217
:1048000020919502309196023093BD032093BC0312
:104810009093BF038093BE030DC08C9DA0018D9D1E
:10482000500D9C9D500D11244E0F5F1F8CEA93E09C
:104830000E94BF1B2C853D858E859F85280F391FC3
:104840002C9DA0012D9D500D3C9D500D112488855F
:1048500099850296840F951F2E813F812E5F3F4FD1
:104860003093B9032093B8039093BB038093BA03AA
:10487000CC0CDD1CE889F989EC0DFD1D8591949126
:104880000E94AC238A81B81210C080919502909149
:10489000960220919302309194023093BD032093AD
:1048A000BC039093BF038093BE03B3947FCFDF918B
:1048B000CF911F910F91FF90EF90DF90CF90BF901D
:1048C0000895EF92FF920F931F93CF938C017B017A
:1048D000C22F4093920260919502709196028CEAE9
:1048E00093E00E94C327ECEAF3E088E290E095872A
:1048F000848717861686C7010E942A236C2F70E0D2
:104900004CE050E0C8010E94C7231093910200932D
:104910009002CF911F910F91FF90EF900895EF9229
:10492000FF920F931F93CF93DF93EC016E8788E084
:104930008F87EA88FB88098910E0288930E070E0D9
:1049400048E050E08CEA93E00E94BF1BCE01DF916B
:10495000CF911F910F91FF90EF900C94592890E008
:10496000FC01E550FD4D2491FC01ED51FD4D84917C
:10497000882399F090E0880F991FFC01E952FD4DC2
:10498000A591B491FC01E553FD4D859194918FB7AC
:10499000F894EC91E22BEC938FBF0895CF93DF93C3
:1049A000EC0185E00E94AF24209711F460E004C080
:1049B000CF3FD10531F461E085E0DF91CF910C94D8
:1049C000C828E8EBF2E2E4918E2F90E0FC013197E9
:1049D000ED30F10508F05FC0E859FF4F0C947C3EC4
:1049E00084B5806884BDC7BD5BC084B5806284BD6A
:1049F000C8BD56C080918000806880938000D093AD
:104A00008900C09388004CC08091800080628093B0
:104A10008000D0938B00C0938A0042C08091B00088
:104A200080688093B000C093B3003AC08091B0001A
:104A300080628093B000C093B40032C08091900037
:104A4000806880939000D0939900C093980028C00C
:104A500080919000806280939000D0939B00C093DF
:104A60009A001EC08091A00080688093A000809171
:104A7000A0008F7B8093A000D093A900C093A800D2
:104A80000FC08091A00080628093A000D093AB0003
:104A9000C093AA0005C0C038D1050CF08CCF86CFDA
:104AA000DF91CF9108952F923F924F925F927F9224
:104AB0008F929F92AF92BF92CF92DF92EF92FF922E
:104AC0000F931F93CF93DF93CDB7DEB72C970FB61D
:104AD000F894DEBF0FBECDBF4A013C872B870B8306
:104AE0001C83ED82FE824091B4035091B50384177C
:104AF00095070CF0A8C02091B6033091B703621758
:104B000073070CF0A0C0FC01E80DF91D4E175F07FC
:104B10001CF44A01881A990A4B855C85460F571F79
:104B2000241735072CF4A901461B570B5C874B87CC
:104B30005B8559838A820FEF060F050F2FEF280F31
:104B4000280D462F682F8CEA93E00E944F2C8CEAA8
:104B500093E00E94C62B4B855C854A195B095887F8
:104B60004F83222433242A183B0824014C185D0863
:104B7000882799278C199D099A878987E9809B85C1
:104B8000E91A2B853C85121613060CF041C08401EE
:104B9000F12C8A81801B101611069CF590E0D7FE3F
:104BA00006C049855A858417950724F410C08415DA
:104BB00095056CF477247394B7FE04C0E214F304F3
:104BC0003CF405C08F819885E816F9060CF0712C2D
:104BD0008CEA93E00E94BC2B711002C08E8101C050
:104BE0008C810E94DD2B8CEA93E00E94BC2B71101B
:104BF00002C08D8101C08B810E94DD2B0150110903
:104C0000C8CF2B853C85215031093C872B87B6CFF7
:104C10008CEA93E02C960FB6F894DEBF0FBECDBFA2
:104C2000DF91CF911F910F91FF90EF90DF90CF9088
:104C3000BF90AF909F908F907F905F904F903F90EC
:104C40002F900C94D22B2C960FB6F894DEBF0FBE8B
:104C5000CDBFDF91CF911F910F91FF90EF90DF902B
:104C6000CF90BF90AF909F908F907F905F904F902C
:104C70003F902F90089591E090938F028093E203EC
:104C800010928E0210928D02089590916A029111F5
:104C9000FCCF613208F060E291E090936A02909359
:104CA00069022FEF2093680210926702260F20936B
:104CB00066029093650290916502880F892B80931C
:104CC000650280916402813061F4109264028091E7
:104CD00065028093BB008091BC0083FDF8CF85EC1A
:104CE00001C085EE8093BC0080916A028130E1F3BF
:104CF00080916702861710F460916702A4E4B2E025
:104D0000EDE6F2E080E0861721F09D9191938F5FB0
:104D1000FACF10926C0280936B02089530918D024D
:104D2000313208F04BC080916A028111FCCF909122
:104D3000E20322E020936A0221E0209369022FEF30
:104D4000209368021092670230936602E4E2F2E078
:104D5000A4E4B2E020E0321721F041914D932F5F9F
:104D6000FACF1092650220916502990F922B9093D1
:104D7000650290916402913061F410926402909106
:104D800065029093BB009091BC0093FDF8CF95EC29
:104D900001C095EE9093BC0090916A029230E1F3CD
:104DA000909168029F3F79F080916802803241F0D3
:104DB00080916802803331F084E005C081E003C057
:104DC00082E001C083E010928E0210928D02109258
:104DD0008F020895682F82EB92E00C949427682F3D
:104DE00082EB92E00C9494279FB7F89440912B04A7
:104DF00050912C0460912D0470912E0486B5A89BCF
:104E000006C08F3F21F04F5F5F4F6F4F7F4F9FBFB7
:104E1000762F652F542F44279A01AB01280F311D9F
:104E2000411D511DA3E0B0E00E94D93A08950895B4
:104E300085ED8093BC008091BC0084FDFCCF109276
:104E40006A020895613298F420916A02243089F44C
:104E500060930304282FA3EEB3E0FC018E2F821B86
:104E6000861718F481918D93F9CF80E0089581E041
:104E7000089582E008950895E0916C0280916B029C
:104E8000E81730F4F0E0E359FD4F808190E0089599
:104E90008FEF9FEF089590916C0280916B029817AD
:104EA00050F4E92FF0E0E359FD4F208130E09F5F9F
:104EB00090936C0202C02FEF3FEFC90108958091DB
:104EC0006B0290E020916C02821B91090895CF92B1
:104ED000DF92EF92FF920F931F93CF93DF937C01AA
:104EE000CB018A0120918F02222389F0EB016B0113
:104EF000C40ED51ECC15DD0569F06991D701ED9181
:104F0000FC910190F081E02DC7010995F3CF642F4A
:104F10000E942227C801DF91CF911F910F91FF902E
:104F2000EF90DF90CF900895CF93DF931F92CDB78E
:104F3000DEB7698320918F022223D1F020918D0268
:104F4000203240F021E030E0FC013383228380E016
:104F500090E015C080918E02E82FF0E0EC5DFD4FEF
:104F6000998190838F5F80938E0280938D0205C01C
:104F700061E0CE0101960E94222781E090E00F902F
:104F8000DF91CF910895EF92FF920F931F93DC0171
:104F90001A960D911C911B9718962D913C9119977B
:104FA000ED91FC9100A0F1A1E02D7B0140E050E0EB
:104FB00060E070E009951F910F91FF90EF900895C8
:104FC0000F931F93CF93DF93FC01DA012D913C9156
:104FD000808591858217930758F5613061F06330C1
:104FE00039F526813781848195812817390764F442
:104FF000C901019609C02681378182819381821778
:10500000930714F4C9010197978386838A01EF01FE
:105010000190F081E02D0480F581E02DCE0109950D
:10502000EC85FD858E819F810995F80111821082A2
:10503000DF91CF911F910F910895623051F4DC01FF
:105040001A96ED91FC911B9716968D919C9117974E
:1050500009940895DC01623029F0633051F0613029
:1050600029F50EC01496ED91FC91159712968C912E
:10507000099412966C9112976623C1F061500EC08C
:1050800012966C911297262F30E013968C911397FD
:1050900090E00197281739074CF46F5FED91FC9170
:1050A00011970480F581E02DCD01099408950E94A7
:1050B000823E4F925F926F927F928F929F92AF92B9
:1050C000BF92CF92DF92EF92FF920F931F93CF93F5
:1050D000DF934C01FC01C189D0E022976E010D2EB7
:1050E000000CEE08FF0842805380052C000C660877
:1050F000770886819781092E000CAA0BBB0BA301B0
:105100009201281B390B4A0B5B0BC701B6010E94A9
:105110004C3E248135818901330F220B330BA901C9
:10512000980124193509460957090E94BA3AC20E56
:10513000D31EE41EF51ED12CAA24BB24AC18BD0836
:10514000E0909502F0909602F4010289138940895B
:1051500050E042505109678570E06F5F7F4F868550
:1051600090E0C12CD12C9E0101960E945325DF9125
:10517000CF911F910F91FF90EF90DF90CF90BF9054
:10518000AF909F908F907F906F905F904F90089519
:10519000362F90E0FC01ED54FD4D4491FC01E550AB
:1051A000FD4D2491FC01ED51FD4D8491882309F4BE
:1051B0004EC04423C1F150E0FA013197ED30F105C2
:1051C00090F5EB58FF4F0C947C3E909180009F77B8
:1051D00003C0909180009F7D9093800024C094B57F
:1051E0009F7702C094B59F7D94BD1DC09091B00083
:1051F0009F7703C09091B0009F7D9093B00013C043
:10520000909190009F7703C0909190009F7D909324
:10521000900009C09091A0009F7703C09091A000DA
:105220009F7D9093A000E82FF0E0EE0FFF1FE55365
:10523000FD4DA591B4919FB7F894311104C08C91A4
:105240002095282302C0EC912E2B2C939FBF08950C
:105250008F929F92AF92BF92CF92DF92EF92FF9286
:105260006B017C010E94F4264B015C01C114D10446
:10527000E104F104F1F00E94F426DC01CB0188196D
:105280009909AA09BB09883E9340A105B10570F3AD
:1052900021E0C21AD108E108F10888EE880E83E007
:1052A000981EA11CB11CC114D104E104F10419F72A
:1052B000DDCFFF90EF90DF90CF90BF90AF909F90A9
:1052C0008F9008952FB7F894609127047091280467
:1052D0008091290490912A042FBF08951F920F9264
:1052E0000FB60F9211242F933F938F939F93AF93F9
:1052F000BF938091270490912804A0912904B09134
:105300002A043091260426E6230F2D3728F029EEB3
:10531000230F0196A11DB11D20932604809327041D
:1053200090932804A0932904B0932A0480912B041D
:1053300090912C04A0912D04B0912E040196A11DF2
:10534000B11D80932B0490932C04A0932D04B09353
:105350002E04BF91AF919F918F913F912F910F900C
:105360000FBE0F901F9018951F920F920FB60F92BD
:1053700011242F933F934F935F936F937F938F935A
:105380009F93AF93BF93EF93FF93E0910201F0914E
:1053900003010995FF91EF91BF91AF919F918F917B
:1053A0007F916F915F914F913F912F910F900FBE21
:1053B0000F901F9018951F920F920FB60F92112405
:1053C0002F933F934F935F936F937F938F939F930D
:1053D000AF93BF93EF93FF93E0910001F091010130
:1053E0000995FF91EF91BF91AF919F918F917F911F
:1053F0006F915F914F913F912F910F900FBE0F9042
:105400001F9018951F920F920FB60F9211242F9391
:105410003F934F935F936F937F938F939F93AF933C
:10542000BF93EF93FF938091B900887F803609F492
:105430009CC068F5883209F45BC090F4803109F4AF
:1054400054C038F4882309F4F2C0883009F44DC000
:10545000F2C0883109F44CC0803209F45DC0EBC061
:10546000803409F468C048F4803309F455C08833A7
:1054700009F0E1C080936802D4C0803509F44FC0C0
:10548000883509F45DC0883409F0D5C0D2C08839A8
:1054900009F4C3C0A8F4883709F467C038F4883623
:1054A00009F463C0803709F460C0C5C0883809F4C6
:1054B000B4C0803909F45FC0803809F0BCC05BC05B
:1054C000803B09F484C038F4803A09F466C0883A15
:1054D00009F47DC0B0C0803C09F4A3C0883C09F445
:1054E000A0C0883B09F486C0A6C08091650210C0A8
:1054F0009091670280916602981770F5E0916702BB
:1055000081E08E0F80936702F0E0EC5BFD4F8081BD
:105510008093BB0085EC82C0809368028AC0E091D2
:10552000670281E08E0F809367028091BB00F0E0FC
:10553000EC5BFD4F808390916702809166026AC0A8
:10554000E091670281E08E0F809367028091BB003B
:10555000F0E0EC5BFD4F808380916902811169C0AE
:1055600081E08093640284EA5DC083E080936A02F4
:1055700010922504CFCF80912504803208F04DC0D1
:10558000E091250481E08E0F809325048091BB007B
:10559000F0E0EB5FFB4F8083BDCF85EC8093BC00D8
:1055A00010926A0280912504803230F4E091250443
:1055B000F0E0EB5FFB4F10826091250470E085E026
:1055C00094E0E0E0F0E009951092250434C084E016
:1055D00080936A021092040410920304E0E0F0E069
:1055E000099580910304811105C081E08093030433
:1055F0001092E303E091040481E08E0F8093040491
:10560000F0E0ED51FC4F80818093BB009091040449
:1056100080910304981708F47DCF85E88093BC003F
:105620000AC085EC8093BC0010926A0204C01092FC
:1056300068020E941827FF91EF91BF91AF919F914F
:105640008F917F916F915F914F913F912F910F902B
:105650000FBE0F901F9018954F925F926F927F929E
:105660008F929F92AF92BF92CF92DF92EF92FF9272
:10567000CF93DF9300D000D000D0CDB7DEB79E83AC
:105680008D83DC014D905D906D907C901397149606
:105690008D909D90AD90BC90179718968D919D918F
:1056A0000D90BC91A02D89839A83AB83BC83A30109
:1056B0009201C301B2010E94803D6B017C01A501F2
:1056C0009401C501B4010E94803D9B01AC01C7015A
:1056D000B6010E94163B6B017C0129813A814B8106
:1056E0005C81CA01B9010E94803D9B01AC01C701E8
:1056F000B6010E94163B0E94F33D6B017C019B01A9
:10570000AC01C301B2010E94F93BED81FE816083CF
:10571000718382839383A7019601C501B4010E941E
:10572000F93BAD81BE8114966D937D938D939C93CF
:105730001797A701960169817A818B819C810E94CC
:10574000F93BED81FE81608771878287938726967A
:105750000FB6F894DEBF0FBECDBFDF91CF91FF90A3
:10576000EF90DF90CF90BF90AF909F908F907F9001
:105770006F905F904F9008958CB58F7B8CBD2B9A66
:105780002D9A2D988CB580648CBD0895DC0195967A
:10579000ED91FC91969790819B968C9180958923B1
:1057A00080830895DC019596ED91FC919697908108
:1057B0009B968C91892B808308958EBD00000DB43B
:1057C00007FEFDCF8EB508951F93CF93DF93EC01B5
:1057D000162F0E94C62BCE010E94BC2B812F0E9447
:1057E000DD2BCE01DF91CF911F910C94D22B1F9313
:1057F000CF93DF93EC01162F0E94C62B8CB58F7BC5
:105800008CBD2B982D9A2D988CB580648CBD812FE2
:105810000E94DD2BCE01DF91CF911F910C94D22BF2
:10582000611102C060E201C061E20C94F72B1F938A
:10583000CF93DF93EC01162F66E30E94F72B1D8BAD
:105840001130B1F068F01230D9F0133021F568E66C
:10585000CE010E94E42B8D8D88A38E8D82501AC0BC
:1058600068ECCE010E94E42B8D8D8F8F8E8D10C041
:1058700068EACE010E94E42B8D8D88A38E8D0AC02C
:105880006CE0CE010E94E42B8D8D8F8F8E8D825027
:1058900088A301C08F8FDF91CF911F910895EF9260
:1058A000FF920F931F93CF93DF93EC01E62E142FFB
:1058B000F22E6AE20E94F72B60E0CE010E94E42BF8
:1058C0006F8D6E0DCE010E94E42B60E0CE010E9430
:1058D000E42B6F8D6F0DCE010E94E42B6BE2CE01A5
:1058E0000E94F72B60E0CE010E94E42B68A1610FBB
:1058F000CE010E94E42B60E0CE010E94E42B68A15F
:10590000600FCE010E94E42B6CE2CE01DF91CF91BB
:105910001F910F91FF90EF900C94F72BAF92BF92D5
:10592000CF92DF92EF92FF920F931F93CF93DF936B
:105930006C015901E801FC0120853185621773076C
:105940000CF049C082859385481759070CF043C075
:10595000FB01EA0DFB1D2E173F071CF45901A61A87
:10596000B70A9A012C0F3D1F821793071CF4EC0114
:10597000C41BD50B0FEF040F0C0F2FEF260F2A0DB2
:10598000C6010E944F2CC6010E94C62B1C161D0684
:10599000ACF48501101611067CF4C6010E94BC2BE4
:1059A0008F2D0E94DD2BC6010E94BC2B8E2D0E94E4
:1059B000DD2B01501109EECF2197E8CFC601DF9111
:1059C000CF911F910F91FF90EF90DF90CF90BF90FC
:1059D000AF900C94D22BDF91CF911F910F91FF903C
:1059E000EF90DF90CF90BF90AF900895DF92EF924D
:1059F000FF920F931F93CF93DF937C01E901D02E89
:105A0000FC0180859185681779078CF5228533859F
:105A10004217530764F59B012C0F3D1F8217930714
:105A20001CF4EC01C61BD70B2FEF260F2C0F042FF5
:105A3000C7010E944F2CC7010E94C62BC7012097A7
:105A400069F00E94BC2B812F0E94DD2BC7010E94B0
:105A5000BC2B8D2D0E94DD2B2197F0CFDF91CF91B4
:105A60001F910F91FF90EF90DF900C94D22BDF915C
:105A7000CF911F910F91FF90EF90DF900895DF92EB
:105A8000EF92FF920F931F93CF93DF937C01E90175
:105A9000D02EFC0180859185681779078CF5828569
:105AA00093854817590764F59A012C0F3D1F8217FB
:105AB00093071CF4EC01C41BD50B0FEF040F0C0F64
:105AC000262FC7010E944F2CC7010E94C62BC70179
:105AD000209769F00E94BC2B812F0E94DD2BC7010B
